:0F0C6E00042D00000000043100000000013500DB
:100C9100120D01120D2C120D30120D287F01120DB3
:0A0CA10017120B54120A8F80F8227C
:100B5400AF30AE2FAD2EAC2D1207727B0A7A00791E
:100B6400007800D31201C4500E120BA88F308E2FC0
:0A0B74008D2E8C2D1205781209D089
:010B7E002254
:100A8F00AF34AE33AD32AC311207727B647A00797A
:100A9F00007800D31201C4501C120BA88F348E3370
:100AAF008D328C31AF35120D0DE53570047F01801D
:050ABF00027F008F35ED
:010AC400220F
:100CAB000001070101060203050300080402050504
:080CBB00020606020707030010
:040631008F2A8D2B54
:10063500752C00E52A1201D5064D000673010699B1
:100645000206BF03000006E3AF2B74017E00A80776
:10065500088005C333CE33CED8F9FFAD807C00EEDC
:100665005CFEEF5DFFEF4E6075752C018070AF2B62
:1006750074017E00A807088005C333CE33CED8F9B0
:10068500FFAD907C00EE5CFEEF5DFFEF4E604F75B9
:100695002C01804AAF2B74017E00A807088005C392
:1006A50033CE33CED8F9FFADA07C00EE5CFEEF5D16
:1006B500FFEF4E6029752C018024AF2B74017E005D
:1006C500A807088005C333CE33CED8F9FFADB07C7B
:1006D50000EE5CFEEF5DFFEF4E6003752C01AF2C65
:0106E50022F2
:020AF7008F2A44
:100AF900752B00E52A1201D50B11000B16010B1BF2
:100B0900020B200300000B2385802B800D85902B81
:0C0B1900800885A02B800385B02BAF2B3B
:010B250022AD
:1004B1008F2A8D2B8B2CE52A1201D504CC0004F751
:1004C10001052202054D0300000577E52C7015AFEB
:1004D1002B7401A807088002C333D8FCFFEFF4FF97
:1004E100EF528022AF2B7401A807088002C333D8D2
:1004F100FCFFEF428022E52C7015AF2B7401A80799
:10050100088002C333D8FCFFEFF4FFEF529022AF13
:100511002B7401A807088002C333D8FCFFEF429077
:1005210022E52C7015AF2B7401A807088002C33394
:10053100D8FCFFEFF4FFEF52A022AF2B7401A80704
:10054100088002C333D8FCFFEF42A022E52C7015CE
:10055100AF2B7401A807088002C333D8FCFFEFF466
:10056100FFEF52B022AF2B7401A807088002C333FA
:07057100D8FCFFEF42B022AD
:100B7F008F2A8D2BE52A1201D50B98000B9C010BA8
:100B8F00A0020BA40300000BA7852B8022852B90BE
:090B9F0022852BA022852BB02237
:100843008F288D29AF28EF75F003A424ADF582E43A
:10085300340CF583E493FFEF6408602CAF28EF7545
:10086300F003A424ACF582E4340CF583E493FFAEE7
:1008730028EE75F003A424ADF582E4340CF583E48B
:1008830093FDAB291204B122AF28EF75F003A42422
:10089300ACF582E4340CF583E493FFAD29120B7FAE
:0108A3002232
:0207DE008F2862
:1007E000752900AF28EF75F003A424ADF582E43439
:1007F0000CF583E493FFEF6408602DAF28EF75F0EC
:1008000003A424ACF582E4340CF583E493FFAE2812
:10081000EE75F003A424ADF582E4340CF583E49383
:10082000FD1206318F298018AF28EF75F003A4243C
:10083000ACF582E4340CF583E493FF120AF78F29B8
:02084000AF29DE
:010842002293
:100CF0005389F0438901758CFC758A92D2A9D28CF4
:010D000022D0
:0A0D0D008F08AD087F07120843228B
:060C7D00043E000000002F
:040D2800120CF02297
:100BA800751300751200751100751000C2A9AF41C8
:100BB800AE40AD3FAC3E8F138E128D118C10D2A972
:080BC800AF13AE12AD11AC1029
:010BD0002202
:080772008F0B8E0A8D098C0823
:10077A00120BA88F0F8E0E8D0D8C0CAF0BAE0AAD1F
:10078A0009AC08AB0FAA0EA90DA80CC31201C440EC
:10079A001BC3E50F950BF50FE50E950AF50EE50D52
:1007AA009509F50DE50C9508F50C801FAF0BAE0AFF
:1007BA00AD09AC081201B6E50F2FF50FE50E3EF5AF
:1007CA000EE50D3DF50DE50C3CF50CAF0FAE0EAD8B
:0307DA000DAC0C57
:0107DD0022F9
:03000B000208A444
:1008A400C0E0C0D075D000C000C001C002C003C009
:1008B40004C005C006C007758CFC758A92AF41AEB2
:1008C40040AD3FAC3E7B017A0079007800EF2BF518
:1008D40041EE3AF540ED39F53FEC38F53ED007D01E
:1008E40006D005D004D003D002D001D000D0D0D09F
:0208F400E032F0
:100CC3007765656B00000000000000000000000075
:080CD300000000000000000019
:030C83000142002B
:040D2C00120CDB22A8
:0601FB008B108A1189122D
:100201007BFF7A0C79C8C003C002C0017B007A0071
:100211007913A801AC02AD03D001D002D0037E0056
:100221007F0B1200DE751332751430AB10AA11A9C1
:100231001212016CFFAEF0EEC4F854F0C868FEEF84
:10024100C4540F48FFEF540FFFEF2430F515AB10E6
:10025100AA11A91212016CFFAEF0EF540FFFEF24A7
:1002610030F51675172DAB10AA11A91275820275FA
:10027100830012011DFFEFC4540FFFEF2430F51866
:10028100AB10AA11A91275820275830012011DFF1C
:10029100EF540FFFEF2430F519751A2DAB10AA1189
:1002A100A91275820375830012011DFFEFC4540F5B
:1002B100FFEF2430F51BAB10AA11A912758203754B
:1002C100830012011DFFEF540FFFEF2430F51C7561
:1002D1001D007B007A0079137D007F001208F6ABC8
:1002E10010AA11A91275820775830012011DFFEF73
:1002F100540FFFEF2430F5137514007BFF7A0C794E
:10030100C37D007F0B1208F67B007A0079137D0014
:100311007F0F1208F6AB10AA11A91275820475831A
:100321000012011DFFEFC4540FFFEF2430F513AB92
:1003310010AA11A91275820475830012011DFFEF25
:10034100540FFFEF2430F51475153AAB10AA11A91B
:100351001275820575830012011DFFEFC4540FFF52
:10036100EF2430F516AB10AA11A912758205758319
:100371000012011DFFEF540FFFEF2430F517751820
:100381003AAB10AA11A91275820675830012011DDC
:10039100FFEFC4540FFFEF2430F519AB10AA11A9D8
:1003A1001275820675830012011DFFEF540FFFEFD6
:1003B1002430F51A751B007B007A0079137D017FCB
:0403C100041208F624
:0103C5002215
:1009D0007BFF7A0C79D3C003C002C0017B007A0090
:1009E0007908A801AC02AD03D001D002D0037E008B
:1009F0007F081200DE7B007A0079081203C6E54208
:100A0000650E600C850E427B007A0079081201FBAE
:010A100022C3
:0A08F6008F1E8D1F8B208A2189229E
:10090000752300E51F7005851E238006E51E244023
:10091000F523E5234480FF120BD1AB20AA21A922A5
:10092000120104FFEF601AAB20AA21A922120104D0
:10093000FF120BFA74012522F522E43521F52180FE
:01094000D9DD
:010941002293
:080003000000000000000000F5
:0A0C86000836201905011230200085
:040D3000120B26225A
:0603C6008B108A11891260
:1003CC007B007A0079368B138A148915AB13AA1427
:1003DC00A91512016CFFAEF0AB10AA11A912EE8F89
:1003EC00F0120197AB13AA14A9157582027583003C
:1003FC0012011DFFAB10AA11A912758202758300A0
:10040C00EF12014AAB13AA14A91575820375830068
:10041C0012011DFFAB10AA11A9127582037583007E
:10042C00EF12014AAB13AA14A91575820475830047
:10043C0012011DFFAB10AA11A9127582047583005D
:10044C00EF12014AAB13AA14A91575820575830026
:10045C0012011DFFAB10AA11A9127582057583003C
:10046C00EF12014AAB13AA14A91575820675830005
:10047C0012011DFFAB10AA11A9127582067583001B
:10048C00EF12014AAB13AA14A915758207758300E4
:10049C0012011DFFAB10AA11A912758207758300FA
:0404AC00EF12014A00
:0104B0002229
:100578007BFF7A007903C003C002C0017B007A00C8
:100588007908A801AC02AD03D001D002D0037E00E7
:100598007F081200DE7B007A0079368B108A118979
:1005A800127B007A007908120A50AF0E7E00EF2401
:1005B80000FFEE3420FEAB10AA11A912EE8FF01244
:1005C8000197AB10AA11A912758202758300E50C78
:1005D80012014AAB10AA11A912758203758300E5AE
:1005E8000B12014AAB10AA11A91275820475830077
:1005F800E50A12014AAB10AA11A912758205758382
:1006080000E50912014AAB10AA11A91275820675F4
:100618008300E50812014AAB10AA11A912758207D6
:08062800758300E50D12014A83
:0106300022A7
:0B0D0100A2AFE433FF8F08C2AFAF08C1
:010D0C0022C4
:090D17008F08E50824FF92AF22C9
:080D200000301220100713003F
:100B26007508007D007F001208437D007F011208D2
:100B3600437F00120C238F08E50830E7107D007F05
:0D0B460007120C4A7BFF7A0D7920120A116C
:010B5300227F
:02098E008F17C1
:10099000751800751801E518602EE5185517FFEF5A
:1009A00060097D017F0212084380077D007F0212EB
:1009B00008437D017F011208437D007F0112084337
:0F09C000E51825E0F51880CE7D017F021208436F
:0109CF002205
:100AC500751700751800751701E51760227F02126A
:100AD50007DEEF6004E51742187D017F0112084328
:100AE5007D007F01120843E51725E0F51780DAAF91
:010AF50018E8
:010AF60022DD
:100C4A008F098D0A7D017F00120843E50925E0FF1F
:100C5A00EF4480FF12098EAF0A12098E7D007F00D1
:040C6A001208432207
:020C23008F0937
:100C2500750A007D017F00120843E50925E0FFEF05
:100C35004481FF12098E120AC58F0A7D007F0012BA
:040C45000843AF0AA7
:010C49002288
:060A11008B098A0A890B23
:100A1700750C007D017F001208437FBE12098E7599
:100A27000C00E50CC394085018AB09AA0AA90BAF30
:100A37000C8F8275830012011DFF12098E050C8031
:080A4700E17D007F001208436D
:010A4F002284
:060A50008B138A148915C6
:100A56007516007D017F001208437FBF12098E754F
:100A66001600E516C394085018120AC5AB13AA144B
:100A7600A915AE168E82758300EF12014A051680FF
:080A8600E17D007F001208432E
:010A8E002245
:100CDB007F38120BD17F0C120BD17F06120BD17FF9
:050CEB0001120BD122F3
:100942007525007526007527007DFF7F0312084379
:100952007D007F041208437D017F051208437D015B
:100962007F061208437F031207DE8F257D007F0674
:100972001208430527E52770020526C3E5279410D0
:0B098200E52694275005E52520E7D36B
:01098D002247
:100BD1008F241209427D007F041208437D007F05A6
:100BE100120843AD247F031208437D017F061208DA
:090BF100437D007F061208432237
:100BFA008F241209427D017F041208437D007F057C
:100C0A00120843AD247F031208437D017F061208B0
:090C1A00437D007F06120843220D
:030000000206E60F
:0C06E600787FE4F6D8FD75814202072DF4
:10000E00E709F608DFFA8046E709F208DFFA803ED4
:10001E0088828C83E709F0A3DFFA8032E309F608C1
:10002E00DFFA8078E309F208DFFA807088828C8329
:10003E00E309F0A3DFFA806489828A83E0A3F608DD
:10004E00DFFA805889828A83E0A3F208DFFA804CB7
:10005E0080D280FA80C680D4806980F2803380108E
:10006E0080A680EA809A80A880DA80E280CA8033F7
:10007E0089828A83ECFAE493A3C8C582C8CCC5836F
:10008E00CCF0A3C8C582C8CCC583CCDFE9DEE7803F
:10009E000D89828A83E493A3F608DFF9ECFAA9F0BE
:1000AE00EDFB2289828A83ECFAE0A3C8C582C8CC14
:1000BE00C583CCF0A3C8C582C8CCC583CCDFEADE2D
:1000CE00E880DB89828A83E493A3F208DFF980CC8F
:1000DE0088F0EF60010E4E60C388F0ED2402B40488
:1000EE000050B9F582EB2402B4040050AF2323452F
:0600FE00822390005E73F6
:10010400BB010689828A83E0225002E722BBFE02F9
:09011400E32289828A83E493222C
:10011D00BB010CE58229F582E5833AF583E0225097
:10012D0006E92582F8E622BBFE06E92582F8E222E1
:0D013D00E58229F582E5833AF583E49322FB
:10014A00F8BB010DE58229F582E5833AF583E8F0EB
:10015A00225006E92582C8F622BBFE05E92582C897
:02016A00F2227F
:10016C00BB010A89828A83E0F5F0A3E0225006875E
:10017C00F009E71922BBFE07E3F5F009E319228920
:0B018C00828A83E493F5F07401932253
:10019700BB010A89828A83F0E5F0A3F0225006F7B3
:0F01A70009A7F01922BBFE06F3E5F009F31922B0
:0E01B600C3E49FFFE49EFEE49DFDE49CFC225A
:1001C400EB9FF5F0EA9E42F0E99D42F0E89C45F091
:0101D4002208
:1001D500D083D082F8E4937012740193700DA3A3B9
:1001E50093F8740193F5828883E4737402936860CD
:0601F500EFA3A3A380DFCD
:1006F200020C91E493A3F8E493A34003F68001F281
:1007020008DFF48029E493A3F85407240CC8C33308
:10071200C4540F4420C8834004F456800146F6DFD7
:10072200E4800B0102040810204080900C6EE47EED
:10073200019360BCA3FF543F30E509541FFEE493CC
:10074200A360010ECF54C025E060A840B8E493A393
:10075200FAE493A3F8E493A3C8C582C8CAC583CABE
:10076200F0A3C8C582C8CAC583CADFE9DEE780BE76
:010C90000063
:00000001FF
