:09099500045400000000015800A8
:10049F00120C6E8F08AA4CA94D1201D5AA38A93992
:1004AF001201D5AA42A9431201D5AF08120C8AAA8C
:1004BF0045A9461201D58F578E568D558C54AF577F
:1004CF00AE56AD55AC548549828548831201D9E4A7
:1004DF007B64FAF9F8D31201C450E3AA45A9461276
:1004EF0001D58F578E568D558C54AA3BA93C1201BE
:1004FF00D5AA52A9531201D5900C9A740193FA748C
:10050F000293F5828A83AF581201D9E55870047FA0
:09051F000180027F008F5880A5C5
:100B2D000001070101060203050300080402050583
:100B3D000206060207070300FF0B2DFF0528FF0B1A
:0D0B4D0086FF0384FF0BA7FF09E4FF0A6E7B
:10052800E4FCEF14602514603D1460552403706EDC
:1005380074017E00A805088005C333CE33CED8F9F0
:10054800FFAB80EF5B60577C01805374017E00A88D
:1005580005088005C333CE33CED8F9FFAB90EF5BE7
:10056800603C7C01803874017E00A805088005C3C2
:1005780033CE33CED8F9FFABA0EF5B60217C01808E
:100588001DAF0574017E00A807088005C333CE336C
:10059800CED8F9FFADB0EDFBEF5B60027C01AF0494
:0105A8002230
:100B8600E4FEEF14600E14600F1460102403700E60
:100B9600AE80800AAE908006AEA08002AEB0AF06F0
:010BA600222C
:10038400EF14602C146048146064240360030204B6
:1003940012EB700E04A805088002C333D8FCF45293
:1003A40080227401A805088002C333D8FC4280224D
:1003B400EB700E04A805088002C333D8FCF45290F5
:1003C400227401A805088002C333D8FC429022EBB2
:1003D400700E04A805088002C333D8FCF452A0228E
:1003E4007401A805088002C333D8FC42A022EB7034
:1003F4000E04A805088002C333D8FCF452B022AF1F
:0F040400057401A807088002C333D8FC42B02258
:100BA700EF14600D14600D14600D2403700B8D801D
:0A0BB700228D90228DA0228DB02225
:1009E400AE07AC05EE75F003A4242FF582E4340BB6
:1009F400F583E493FD64086016EE75F003A4242ED9
:100A0400F582E4340BF583E493FFAB04020384EE34
:100A140075F003A4242EF582E4340BF583E493FFEC
:060A2400AD04120BA72235
:020A6E00AE07D1
:100A7000E4EE75F003A4242FF582E4340BF583E44F
:100A800093FD64086016EE75F003A4242EF582E44D
:100A9000340BF583E493FF1205288014EE75F00300
:100AA000A4242EF582E4340BF583E493FF120B8625
:010AB0002223
:10099E00121DFF0C3AFF0C90FF0C95FF0C76FF0B0F
:0409AE00C1FF0C84F5
:0F0C3A005389F0438901120C76120C90D28C2250
:050C9000D2A9D28C2264
:050C9500C2A9C28C227F
:070C7600758CFC758A182241
:060C8400A28DE433FF2203
:100BC100E4FFFE120C95AF8CEFFEAD8A7C00E42DA4
:070BD100FFEC3EFE120C9048
:010BD80022FA
:030C9A00FF0BF05D
:100BF000AD07900B54740193FA740293F5828A83C3
:050C00007F070201D98D
:1009B200043D000000000941FF0C7DFF0B5AFF07B8
:0109C2007FB5
:070C7D00AA1EA91F0201D508
:100B5A00E4F513F512F511F510120C6EAB07AF4060
:100B6A00AE3FAD3EAC3D8F138E128D118C10AF038C
:0B0B7A00120C8AAF13AE12AD11AC10CC
:010B8500224D
:08077F008F0B8E0A8D098C0816
:100787007A0B795A890F8A0E750DFF750C00AB0F1E
:10079700AA0EA90DA80CC31201C4401AE50F950BA8
:1007A700F50FE50E950AF50EE50D9509F50DE50C26
:1007B7009508F50C801FAF0BAE0AAD09AC08120106
:1007C700B6E50F2FF50FE50E3EF50EE50D3DF50DE0
:0D07D700E50C3CF50CAF0FAE0EAD0DAC0CFB
:0107E40022F2
:03000B00020840A8
:10084000C0E0C0F0C083C082C0D075D000C000C07E
:1008500001C002C003C004C005C006C007AA27A982
:10086000281201D5AF40AE3FAD3EAC3DEF2401F5BF
:1008700040E43EF53FE43DF53EE43CF53DD007D095
:1008800006D005D004D003D002D001D000D0D0D003
:0808900082D083D0F0D0E032E9
:100C2A007765656B0000000000000000000000000E
:0E09C300094BFF0C49FF0944FF0BD9014A0004
:0E0C4900900C65740193FA740293F90201D5C0
:1001DB00750800750900750A2F780B7C007D007B74
:1001EB00FF7A0C792F7E007F0B1200DE750B3275B8
:1001FB000C30AB08AA09A90A12016CFDACF0ECC4D7
:10020B00F854F0C8EDC4540F48540F2430F50DAF1B
:10021B0005EF540F2430F50E750F2D9000021201CF
:10022B001DFFC4540F2430F510EF540F2430F5117B
:10023B0075122D90000312011DFFC4540F2430F5CD
:10024B0013EF540F2430F514E4F515FB7A00790BFA
:10025B00FDFF120944AB08AA09A90A900007120175
:10026B001D540F2430F50BE4F50C7BFF7A0C792A27
:10027B00FD7F0B1209447B007A00790BE4FD7F0FA5
:10028B00120944AB08AA09A90A90000412011DFF28
:10029B00C4540F2430F50BEF540F2430F50C750DAF
:1002AB003A90000512011DFFC4540F2430F50EEFD8
:1002BB00540F2430F50F75103A90000612011DFFF4
:1002CB00C4540F2430F511EF540F2430F512E4F51C
:0D02DB0013FB7A00790B7D017F04020944BA
:100BD9007B007A00792F90000612011DFF654A609B
:060BE900058F4A1201DB3A
:010BEF0022E3
:060944008B168A178918CA
:10094A00ED7004AE078004EF2440FEEE4480FF9071
:10095A000C68740193FA740293F5828A831201D99E
:10096A00AB16AA17A918120104FF601E900C6B742B
:10097A000193FA740293F5828A831201D9740125CC
:0A098A0018F518E43517F51780D6AC
:010994002240
:080003000000000000000000F5
:1009D100082F20190501123020000637FF0C57FFA0
:0209E10005A966
:0E0C5700900C21740193FA740293F90201D5F6
:1005A90078087C007D007BFF7A0079037E007F0854
:1005B9001200DE75100075110075122F7B007A008C
:1005C9007908C002900C27740193FA740293F5829A
:1005D9008A83D0021201D9E4250EFFE43420AB103E
:1005E900AA11A9128FF0120197AB10AA11A91290A2
:1005F9000002E50C12014A900003E50B12014A9032
:100609000004E50A12014A900005E50912014A9021
:0F0619000006E50812014A900007E50D02014AAC
:070C6E00A2AFE433FFC2AFA7
:010C7500225C
:060C8A00EF24FF92AF22EF
:100C19000030122010071300FF0A2AFF0898FF0866
:010C2900EEDC
:100A2A00E4FF900B54740193FA740293F5828A835B
:100A3A00E4FD1201D9900B54740193FA740293F5F0
:100A4A00828A83E4FD7F011201D9E4FF120AB1EF21
:100A5A0030E710E4FD7F07120AF17BFF7A0C79195F
:030A6A00120898D7
:010A6D002266
:020628008F172A
:10062A00E4F518751801E518605A5517900B5460CF
:10063A000F740193FA740293F5828A837D01800D07
:10064A00740193FA740293F5828A83E4FD7F02129D
:10065A0001D9900B54740193FA740293F5828A8338
:10066A007D017F011201D9900B54740193FA74022F
:10067A0093F5828A83E4FD7F011201D9E51825E00A
:10068A00F51880A2900B54740193FA740293F582C0
:09069A008A837D017F020201D96F
:1007E500E4F517F518751701E517604C900B57746C
:1007F5000193FA740293F5828A837F021201D9EF7D
:100805006004E5174218900B54740193FA7402932F
:10081500F5828A837D017F011201D9900B54740101
:1008250093FA740293F5828A83E4FD7F011201D95C
:0A083500E51725E0F51780B0AF18B5
:01083F002296
:100AF1008F138D14900B54740193FA740293F58241
:100B01008A837D01E4FF1201D9E51325E04480FFCA
:100B1100120628AF14120628900B54740193FA742C
:0C0B21000293F5828A83E4FDFF0201D9F3
:020AB1008F13A1
:100AB300E4F514900B54740193FA740293F5828A4B
:100AC300837D01E4FF1201D9E51325E04481FF1280
:100AD30006281207E58F14900B54740193FA7402DD
:0D0AE30093F5828A83E4FDFF1201D9AF1460
:010AF00022E3
:060898008B138A14891580
:10089E00E4F516900B54740193FA740293F5828A60
:1008AE00837D01E4FF1201D97FBE120628E4F516FE
:1008BE00AB13AA14A91585168275830012011DFFAC
:1008CE001206280516E516C3940840E4900B5474DE
:1008DE000193FA740293F5828A83E4FDFF0201D933
:0608EE008B138A1489152A
:1008F400E4F516900B54740193FA740293F5828A0A
:10090400837D01E4FF1201D97FBF120628E4F516A6
:100914001207E5AB13AA14A915851682758300EF97
:1009240012014A0516E516C3940840E4900B54746A
:100934000193FA740293F5828A83E4FDFF0201D9DC
:090C6500FF0C05FF06A3FF0711B7
:100C05007F381206A37F0C1206A37F061206A37F68
:040C1500010206A32F
:1002E800E4F51AF51BF51C900B54740193FA74028B
:1002F80093F5828A837DFF7F031201D9900B547492
:100308000193FA740293F5828A83E4FD7F04120153
:10031800D9900B54740193FA740293F5828A837D01
:10032800017F051201D9900B54740193FA7402935A
:10033800F5828A837D017F061201D9900B577401DB
:1003480093FA740293F5828A837F031201D98F1A74
:10035800900B54740193FA740293F5828A83E4FD36
:100368007F061201D9051CE51C7002051BC39410F9
:0B037800E51B94275005E51A20E7ABB9
:010383002257
:1006A3008F191202E8900B54740193FA740293F5B4
:1006B300828A83E4FD7F041201D9900B5474019361
:1006C300FA740293F5828A83E4FD7F051201D990BF
:1006D3000B54740193FA740293F5828A83AD197FE4
:1006E300031201D9900B54740193FA740293F582A7
:1006F3008A837D017F061201D9900B54740193FA0A
:0E070300740293F5828A83E4FD7F060201D919
:100711008F191202E8900B54740193FA740293F545
:10072100828A837D017F041201D9900B5474019355
:10073100FA740293F5828A83E4FD7F051201D99050
:100741000B54740193FA740293F5828A83AD197F75
:10075100031201D9900B54740193FA740293F58238
:100761008A837D017F061201D9900B54740193FA9B
:0E077100740293F5828A83E4FD7F060201D9AB
:03000000020413E4
:0C041300787FE4F6D8FD75815802045A89
:10000E00E709F608DFFA8046E709F208DFFA803ED4
:10001E0088828C83E709F0A3DFFA8032E309F608C1
:10002E00DFFA8078E309F208DFFA807088828C8329
:10003E00E309F0A3DFFA806489828A83E0A3F608DD
:10004E00DFFA805889828A83E0A3F208DFFA804CB7
:10005E0080D280FA80C680D4806980F2803380108E
:10006E0080A680EA809A80A880DA80E280CA8033F7
:10007E0089828A83ECFAE493A3C8C582C8CCC5836F
:10008E00CCF0A3C8C582C8CCC583CCDFE9DEE7803F
:10009E000D89828A83E493A3F608DFF9ECFAA9F0BE
:1000AE00EDFB2289828A83ECFAE0A3C8C582C8CC14
:1000BE00C583CCF0A3C8C582C8CCC583CCDFEADE2D
:1000CE00E880DB89828A83E493A3F208DFF980CC8F
:1000DE0088F0EF60010E4E60C388F0ED2402B40488
:1000EE000050B9F582EB2402B4040050AF2323452F
:0600FE00822390005E73F6
:10010400BB010689828A83E0225002E722BBFE02F9
:09011400E32289828A83E493222C
:10011D00BB010CE58229F582E5833AF583E0225097
:10012D0006E92582F8E622BBFE06E92582F8E222E1
:0D013D00E58229F582E5833AF583E49322FB
:10014A00F8BB010DE58229F582E5833AF583E8F0EB
:10015A00225006E92582C8F622BBFE05E92582C897
:02016A00F2227F
:10016C00BB010A89828A83E0F5F0A3E0225006875E
:10017C00F009E71922BBFE07E3F5F009E319228920
:0B018C00828A83E493F5F07401932253
:10019700BB010A89828A83F0E5F0A3F0225006F7B3
:0F01A70009A7F01922BBFE06F3E5F009F31922B0
:0E01B600C3E49FFFE49EFEE49DFDE49CFC225A
:1001C400EB9FF5F0EA9E42F0E99D42F0E89C45F091
:0101D4002208
:0601D5008A838982E473B5
:10041F0002049FE493A3F8E493A34003F68001F250
:10042F0008DFF48029E493A3F85407240CC8C333DE
:10043F00C4540F4420C8834004F456800146F6DFAD
:10044F00E4800B0102040810204080900995E47E9F
:10045F00019360BCA3FF543F30E509541FFEE493A2
:10046F00A360010ECF54C025E060A840B8E493A369
:10047F00FAE493A3F8E493A3C8C582C8CAC583CA94
:10048F00F0A3C8C582C8CAC583CADFE9DEE780BE4C
:0109E3000013
:00000001FF
