:090CA000043500000000013900D8
:1008FF00120D11120D53120D57120D4F7F01120DC4
:10090F0027120B538F388E378D368C35AF38AE3765
:10091F00AD36AC351207727B327A0079007800D38E
:10092F001201C4501F120B538F388E378D368C35F2
:10093F00120A33AF39120D1DE53970047F018002A1
:0A094F007F008F3912057880C32263
:100CBD0000010701010602030503000804020505F2
:080CCD000206060207070300FE
:040631008F2A8D2B54
:10063500752C00E52A1201D5064D000673010699B1
:100645000206BF03000006E3AF2B74017E00A80776
:10065500088005C333CE33CED8F9FFAD807C00EEDC
:100665005CFEEF5DFFEF4E6075752C018070AF2B62
:1006750074017E00A807088005C333CE33CED8F9B0
:10068500FFAD907C00EE5CFEEF5DFFEF4E604F75B9
:100695002C01804AAF2B74017E00A807088005C392
:1006A50033CE33CED8F9FFADA07C00EE5CFEEF5D16
:1006B500FFEF4E6029752C018024AF2B74017E005D
:1006C500A807088005C333CE33CED8F9FFADB07C7B
:1006D50000EE5CFEEF5DFFEF4E6003752C01AF2C65
:0106E50022F2
:020B24008F2A16
:100B2600752B00E52A1201D50B3E000B43010B483D
:100B3600020B4D0300000B5085802B800D85902BFA
:0C0B4600800885A02B800385B02BAF2B0E
:010B52002280
:1004B1008F2A8D2B8B2CE52A1201D504CC0004F751
:1004C10001052202054D0300000577E52C7015AFEB
:1004D1002B7401A807088002C333D8FCFFEFF4FF97
:1004E100EF528022AF2B7401A807088002C333D8D2
:1004F100FCFFEF428022E52C7015AF2B7401A80799
:10050100088002C333D8FCFFEFF4FFEF529022AF13
:100511002B7401A807088002C333D8FCFFEF429077
:1005210022E52C7015AF2B7401A807088002C33394
:10053100D8FCFFEFF4FFEF52A022AF2B7401A80704
:10054100088002C333D8FCFFEF42A022E52C7015CE
:10055100AF2B7401A807088002C333D8FCFFEFF466
:10056100FFEF52B022AF2B7401A807088002C333FA
:07057100D8FCFFEF42B022AD
:100BDA008F2A8D2BE52A1201D50BF3000BF7010B97
:100BEA00FB020BFF0300000C02852B8022852B9051
:090BFA0022852BA022852BB022DC
:100843008F288D29AF28EF75F003A424BFF582E428
:10085300340CF583E493FFEF6408602CAF28EF7545
:10086300F003A424BEF582E4340CF583E493FFAED5
:1008730028EE75F003A424BFF582E4340CF583E479
:1008830093FDAB291204B122AF28EF75F003A42422
:10089300BEF582E4340CF583E493FFAD29120BDA41
:0108A3002232
:0207DE008F2862
:1007E000752900AF28EF75F003A424BFF582E43427
:1007F0000CF583E493FFEF6408602DAF28EF75F0EC
:1008000003A424BEF582E4340CF583E493FFAE2800
:10081000EE75F003A424BFF582E4340CF583E49371
:10082000FD1206318F298018AF28EF75F003A4243C
:10083000BEF582E4340CF583E493FF120B248F2978
:02084000AF29DE
:010842002293
:0F0D02005389F0438901120D38120D45D28C220E
:050D4500D2A9D28C22AE
:050D4A00C2A9C28C22C9
:070D3800758CFC758A922204
:060D3F00A28DE433FF2247
:100BB000753E00753F00120D4AAF8C7E008E3E8F51
:100BC0003FE53F7F00FEAD8A7C00EF2DF53FEE3C18
:090BD000F53E120D45AE3EAF3FAB
:010BD90022F9
:0A0D1D008F08AD087F07120843227B
:060CA900043A0000000007
:040D4F00120D02225D
:100B5300751300751200751100751000120D118FB9
:100B630014AF3DAE3CAD3BAC3A8F138E128D118C5E
:0E0B730010AF14120D27AF13AE12AD11AC105F
:010B81002251
:080772008F0B8E0A8D098C0823
:10077A00120B538F0F8E0E8D0D8C0CAF0BAE0AAD74
:10078A0009AC08AB0FAA0EA90DA80CC31201C440EC
:10079A001BC3E50F950BF50FE50E950AF50EE50D52
:1007AA009509F50DE50C9508F50C801FAF0BAE0AFF
:1007BA00AD09AC081201B6E50F2FF50FE50E3EF5AF
:1007CA000EE50D3DF50DE50C3CF50CAF0FAE0EAD8B
:0307DA000DAC0C57
:0107DD0022F9
:03000B000208A444
:1008A400C0E0C0F0C083C082C0D075D000C000C01A
:1008B40001C002C003C004C005C006C007120D3841
:1008C400AF3DAE3CAD3BAC3A7B017A007900780099
:1008D400EF2BF53DEE3AF53CED39F53BEC38F53AC6
:1008E400D007D006D005D004D003D002D001D00068
:0B08F400D0D0D082D083D0F0D0E03212
:100CD5007765656B00000000000000000000000063
:080CE500000000000000000007
:030CAF0001400001
:040D5300120CED226F
:0601FB008B108A1189122D
:100201007BFF7A0C79DAC003C002C0017B007A005F
:100211007913A801AC02AD03D001D002D0037E0056
:100221007F0B1200DE751332751430AB10AA11A9C1
:100231001212016CFFAEF0EEC4F854F0C868FEEF84
:10024100C4540F48FFEF540FFFEF2430F515AB10E6
:10025100AA11A91212016CFFAEF0EF540FFFEF24A7
:1002610030F51675172DAB10AA11A91275820275FA
:10027100830012011DFFEFC4540FFFEF2430F51866
:10028100AB10AA11A91275820275830012011DFF1C
:10029100EF540FFFEF2430F519751A2DAB10AA1189
:1002A100A91275820375830012011DFFEFC4540F5B
:1002B100FFEF2430F51BAB10AA11A912758203754B
:1002C100830012011DFFEF540FFFEF2430F51C7561
:1002D1001D007B007A0079137D007F00120959AB64
:1002E10010AA11A91275820775830012011DFFEF73
:1002F100540FFFEF2430F5137514007BFF7A0C794E
:10030100D57D007F0B1209597B007A0079137D009E
:100311007F0F120959AB10AA11A9127582047583B6
:100321000012011DFFEFC4540FFFEF2430F513AB92
:1003310010AA11A91275820475830012011DFFEF25
:10034100540FFFEF2430F51475153AAB10AA11A91B
:100351001275820575830012011DFFEFC4540FFF52
:10036100EF2430F516AB10AA11A912758205758319
:100371000012011DFFEF540FFFEF2430F517751820
:100381003AAB10AA11A91275820675830012011DDC
:10039100FFEFC4540FFFEF2430F519AB10AA11A9D8
:1003A1001275820675830012011DFFEF540FFFEFD6
:1003B1002430F51A751B007B007A0079137D017FCB
:0403C10004120959C0
:0103C5002215
:100A33007BFF7A0C79E5C003C002C0017B007A001A
:100A43007908A801AC02AD03D001D002D0037E0027
:100A53007F081200DE7B007A0079081203C6E540A6
:100A6300650E600C850E407B007A0079081201FB4D
:010A73002260
:0A0959008F1E8D1F8B208A2189223A
:10096300752300E51F7005851E238006E51E2440C0
:10097300F523E5234480FF120C03AB20AA21A9220F
:10098300120104FFEF601AAB20AA21A9221201046D
:10099300FF120C2C74012522F522E43521F5218068
:0109A300D97A
:0109A4002230
:080003000000000000000000F5
:0A0CB200082D201905011230200062
:040D5700120B8222D7
:0603C6008B108A11891260
:1003CC007B007A00792D8B138A148915AB13AA1430
:1003DC00A91512016CFFAEF0AB10AA11A912EE8F89
:1003EC00F0120197AB13AA14A9157582027583003C
:1003FC0012011DFFAB10AA11A912758202758300A0
:10040C00EF12014AAB13AA14A91575820375830068
:10041C0012011DFFAB10AA11A9127582037583007E
:10042C00EF12014AAB13AA14A91575820475830047
:10043C0012011DFFAB10AA11A9127582047583005D
:10044C00EF12014AAB13AA14A91575820575830026
:10045C0012011DFFAB10AA11A9127582057583003C
:10046C00EF12014AAB13AA14A91575820675830005
:10047C0012011DFFAB10AA11A9127582067583001B
:10048C00EF12014AAB13AA14A915758207758300E4
:10049C0012011DFFAB10AA11A912758207758300FA
:0404AC00EF12014A00
:0104B0002229
:100578007BFF7A007903C003C002C0017B007A00C8
:100588007908A801AC02AD03D001D002D0037E00E7
:100598007F081200DE7B007A00792D8B108A118982
:1005A800127B007A007908120AB3AF0E7E00EF249E
:1005B80000FFEE3420FEAB10AA11A912EE8FF01244
:1005C8000197AB10AA11A912758202758300E50C78
:1005D80012014AAB10AA11A912758203758300E5AE
:1005E8000B12014AAB10AA11A91275820475830077
:1005F800E50A12014AAB10AA11A912758205758382
:1006080000E50912014AAB10AA11A91275820675F4
:100618008300E50812014AAB10AA11A912758207D6
:08062800758300E50D12014A83
:0106300022A7
:0B0D1100A2AFE433FF8F15C2AFAF1597
:010D1C0022B4
:090D27008F15E51524FF92AF229F
:080D300000301220100713002F
:100B82007508007D007F001208437D007F01120876
:100B9200437F00120C558F08E50830E7107D007F77
:0D0BA20007120C7C7BFF7A0D7930120A746B
:010BAF002223
:0209F1008F175E
:1009F300751800751801E518602EE5185517FFEFF7
:100A030060097D017F0212084380077D007F021287
:100A130008437D017F011208437D007F01120843D3
:0F0A2300E51825E0F51880CE7D017F021208430B
:010A320022A1
:100AF200751700751800751701E51760227F02123D
:100B020007DEEF6004E51742187D017F01120843FA
:100B12007D007F01120843E51725E0F51780DAAF63
:010B220018BA
:010B230022AF
:100C7C008F098D0A7D017F00120843E50925E0FFED
:100C8C00EF4480FF1209F1AF0A1209F17D007F00D9
:040C9C0012084322D5
:020C55008F0905
:100C5700750A007D017F00120843E50925E0FFEFD3
:100C67004481FF1209F1120AF28F0A7D007F0012F8
:040C77000843AF0A75
:010C7B002256
:060A74008B098A0A890BC0
:100A7A00750C007D017F001208437FBE1209F175D3
:100A8A000C00E50CC394085018AB09AA0AA90BAFCD
:100A9A000C8F8275830012011DFF1209F1050C806B
:080AAA00E17D007F001208430A
:010AB2002221
:060AB3008B138A14891563
:100AB9007516007D017F001208437FBF1209F17589
:100AC9001600E516C394085018120AF2AB13AA14BB
:100AD900A915AE168E82758300EF12014A0516809C
:080AE900E17D007F00120843CB
:010AF10022E2
:100CED007F38120C037F0C120C037F06120C037F4E
:050CFD0001120C0322AE
:1009A5007525007526007527007DFF7F0312084316
:1009B5007D007F041208437D017F051208437D01F8
:1009C5007F061208437F031207DE8F257D007F0611
:1009D5001208430527E52770020526C3E52794106D
:0B09E500E52694275005E52520E7D308
:0109F00022E4
:100C03008F241209A57D007F041208437D007F0510
:100C1300120843AD247F031208437D017F061208A7
:090C2300437D007F061208432204
:100C2C008F241209A57D017F041208437D007F05E6
:100C3C00120843AD247F031208437D017F0612087E
:090C4C00437D007F0612084322DB
:030000000206E60F
:0C06E600787FE4F6D8FD75814002072DF6
:10000E00E709F608DFFA8046E709F208DFFA803ED4
:10001E0088828C83E709F0A3DFFA8032E309F608C1
:10002E00DFFA8078E309F208DFFA807088828C8329
:10003E00E309F0A3DFFA806489828A83E0A3F608DD
:10004E00DFFA805889828A83E0A3F208DFFA804CB7
:10005E0080D280FA80C680D4806980F2803380108E
:10006E0080A680EA809A80A880DA80E280CA8033F7
:10007E0089828A83ECFAE493A3C8C582C8CCC5836F
:10008E00CCF0A3C8C582C8CCC583CCDFE9DEE7803F
:10009E000D89828A83E493A3F608DFF9ECFAA9F0BE
:1000AE00EDFB2289828A83ECFAE0A3C8C582C8CC14
:1000BE00C583CCF0A3C8C582C8CCC583CCDFEADE2D
:1000CE00E880DB89828A83E493A3F208DFF980CC8F
:1000DE0088F0EF60010E4E60C388F0ED2402B40488
:1000EE000050B9F582EB2402B4040050AF2323452F
:0600FE00822390005E73F6
:10010400BB010689828A83E0225002E722BBFE02F9
:09011400E32289828A83E493222C
:10011D00BB010CE58229F582E5833AF583E0225097
:10012D0006E92582F8E622BBFE06E92582F8E222E1
:0D013D00E58229F582E5833AF583E49322FB
:10014A00F8BB010DE58229F582E5833AF583E8F0EB
:10015A00225006E92582C8F622BBFE05E92582C897
:02016A00F2227F
:10016C00BB010A89828A83E0F5F0A3E0225006875E
:10017C00F009E71922BBFE07E3F5F009E319228920
:0B018C00828A83E493F5F07401932253
:10019700BB010A89828A83F0E5F0A3F0225006F7B3
:0F01A70009A7F01922BBFE06F3E5F009F31922B0
:0E01B600C3E49FFFE49EFEE49DFDE49CFC225A
:1001C400EB9FF5F0EA9E42F0E99D42F0E89C45F091
:0101D4002208
:1001D500D083D082F8E4937012740193700DA3A3B9
:1001E50093F8740193F5828883E4737402936860CD
:0601F500EFA3A3A380DFCD
:1006F2000208FFE493A3F8E493A34003F68001F217
:1007020008DFF48029E493A3F85407240CC8C33308
:10071200C4540F4420C8834004F456800146F6DFD7
:10072200E4800B0102040810204080900CA0E47EBB
:10073200019360BCA3FF543F30E509541FFEE493CC
:10074200A360010ECF54C025E060A840B8E493A393
:10075200FAE493A3F8E493A3C8C582C8CAC583CABE
:10076200F0A3C8C582C8CAC583CADFE9DEE780BE76
:010CBC000037
:00000001FF
