:090A1300042E0000000001320075
:10068C00120AC68F08120AFC120AFF120AF9AF08E6
:10069C00120AE91206228F318E308D2F8C2EAF313B
:1006AC00AE30AD2FAC2E120541E47B64FAF9F8D3D1
:1006BC001201C4501F1206228F318E308D2F8C2EBA
:1006CC00120909AF32120AD6E53270047F0180029A
:0906DC007F008F321205B580C5C4
:100A48000001070101060203050300080402050569
:080A5800020606020707030075
:1004C000E4FCEF14602514603D1460552403706E45
:1004D00074017E00A805088005C333CE33CED8F959
:1004E000FFAB80EF5B60577C01805374017E00A8F6
:1004F00005088005C333CE33CED8F9FFAB90EF5B50
:10050000603C7C01803874017E00A805088005C32A
:1005100033CE33CED8F9FFABA0EF5B60217C0180F6
:100520001DAF0574017E00A807088005C333CE33D4
:10053000CED8F9FFADB0EDFBEF5B60027C01AF04FC
:010540002298
:1009D200E4FEEF14600E14600F1460102403700E16
:1009E200AE80800AAE908006AEA08002AEB0AF06A6
:0109F20022E2
:1003A500EF14602C14604814606424036003020495
:1003B50033EB700E04A805088002C333D8FCF45251
:1003C50080227401A805088002C333D8FC4280222C
:1003D500EB700E04A805088002C333D8FCF45290D4
:1003E500227401A805088002C333D8FC429022EB91
:1003F500700E04A805088002C333D8FCF452A0226D
:100405007401A805088002C333D8FC42A022EB7012
:100415000E04A805088002C333D8FCF452B022AFFD
:0F042500057401A807088002C333D8FC42B02237
:100A2E00EF14600D14600D14600D2403700B8D8097
:0A0A3E00228D90228DA0228DB0229F
:10072D00AE07AC05EE75F003A4244AF582E4340A55
:10073D00F583E493FD64086016EE75F003A4244977
:10074D00F582E4340AF583E493FFAB040203A5EECE
:10075D0075F003A42449F582E4340AF583E493FF8C
:06076D00AD04120A2E2269
:02077300AE07CF
:10077500E4EE75F003A4244AF582E4340AF583E433
:1007850093FD64086016EE75F003A42449F582E430
:10079500340AF583E493FF1204C08014EE75F00368
:1007A500A42449F582E4340AF583E493FF1209D2BF
:0107B5002221
:0C0ABA005389F0438901120ADDD28C221E
:050AEF00D2A9D28C2207
:050AF400C2A9C28C2222
:060ADD00E4F58CF58A220D
:060AE300A28DE433FF22A6
:100A6000E4FFFE120AF4AF8CEFFEAD8A7C00E42DA9
:070A7000FFEC3EFE120AEF4D
:010A7700225C
:070AD600AD077F0702072DA9
:040A1C0002330000A1
:030AF900020ABA34
:100A9000E4F519F51A120AF485331985341A120A85
:050AA000EFAE19AF1AD2
:010AA500222E
:10062200E4F514F513F512F511F515F516F517F5B0
:1006320018C2AF120A608E178F18120A908E158F89
:1006420016120AE3EF600F120A608E178F18051652
:10065200E51670020515E4851814851713F512F5D1
:1006620011AE15AF16FCFD78101201D5E5144FF549
:1006720014E5134EF513E5124DF512E5114CF51183
:09068200D2AFAF14AE13AD12FCAF
:01068B00224C
:080541008F0C8E0B8D0A8C0952
:10054900E4F510F50FF50EF50D1206228F108E0F3A
:100559008D0E8C0DAF0CAE0BAD0AAC09AB10AA0F0A
:10056900A90EA80DC31201C4401AE510950CF51087
:10057900E50F950BF50FE50E950AF50EE50D9509B5
:10058900F50D801FAF0CAE0BAD0AAC091201B6E533
:10059900102FF510E50F3EF50FE50E3DF50EE50DB3
:0B05A9003CF50DAF10AE0FAD0EAC0D19
:0105B4002224
:03000B000207B633
:1007B600C0E0C0F0C083C082C0D075D000C000C009
:1007C60001C002C003C004C005C006C007120ADD8E
:1007D6000534E53470020533D007D006D005D004C1
:1007E600D003D002D001D000D0D0D082D083D0F0B8
:0307F600D0E0321E
:100A78007765656B000000000000000000000000C2
:080A8800000000000000000066
:030A20000135009D
:030AFC00020AA645
:0601E8008B118A1289133D
:1001EE0078147C007D007BFF7A0A797D7E007F0B80
:1001FE001200DE751432751530AB11AA12A9131246
:10020E00016CFDACF0ECC4F854F0C8EDC4540F48CA
:10021E00540F2430F516AF05EF540F2430F5177533
:10022E00182D90000212011DFFC4540F2430F51931
:10023E00EF540F2430F51A751B2D90000312011D7B
:10024E00FFC4540F2430F51CEF540F2430F51DE479
:10025E00F51EFB7A007914FDFF1208A3AB11AA124A
:10026E00A91390000712011D540F2430F514E4F564
:10027E00157BFF7A0A7978FD7F0B1208A37B007A33
:10028E00007914E4FD7F0F1208A3AB11AA12A91373
:10029E0090000412011DFFC4540F2430F514EF54C6
:1002AE000F2430F51575163A90000512011DFFC486
:1002BE00540F2430F517EF540F2430F51875193AF2
:1002CE0090000612011DFFC4540F2430F51AEF548E
:1002DE000F2430F51BE4F51CFB7A0079147D017FA9
:0402EE00040208A35B
:1009090078097C007D007BFF7A0A79887E007F0860
:100919001200DE7B007A0079091202F2E535650FD3
:0E092900600C850F357B007A0079091201E819
:01093700229D
:0608A3008B1F8A20892151
:1008A900ED7004AE078004EF2440FEEE4480FF1291
:1008B9000938AB1FAA20A921120104FF60101209EF
:0E08C9006074012521F521E43520F52080E43E
:0108D70022FE
:080003000000000000000000F5
:0A0A230008262019050112302000FA
:030AFF0002098861
:0602F2008B118A12891332
:1002F8007B007A0079268B148A15891612016CFF07
:10030800AB11AA12A913E5F08FF0120197AB14AA4A
:1003180015A91690000212011DAB11AA12A913907B
:10032800000212014AAB14AA15A916900003120183
:100338001DAB11AA12A91390000312014AAB14AA0B
:1003480015A91690000412011DAB11AA12A9139049
:10035800000412014AAB14AA15A91690000512014F
:100368001DAB11AA12A91390000512014AAB14AAD9
:1003780015A91690000612011DAB11AA12A9139017
:10038800000612014AAB14AA15A91690000712011B
:0D0398001DAB11AA12A91390000702014A23
:1005B50078097C007D007BFF7A0079037E007F0847
:1005C5001200DE7511007512007513267B007A0086
:1005D5007909120832E4250FFFE43420AB11AA1281
:1005E500A9138FF0120197AB11AA12A9139000025B
:1005F500E50D12014A900003E50C12014A90000432
:10060500E50B12014A900005E50A12014A90000621
:0D061500E50912014A900007E50E02014AB6
:070AC600A2AFE433FFC2AF51
:010ACD002206
:060AE900EF24FF92AF2292
:080ACE00003012201007130094
:10098800E4FFFD12072DE4FD7F0112072DE4FF129D
:1009980009AFEF30E710E4FD7F071209F37BFF7A18
:0609A8000A79CE1207F9E6
:0109AE002226
:02086B008F18E4
:10086D00E4F519751901E5196025551860047D0128
:10087D008002E4FD7F0212072D7D017F0112072DFD
:10088D00E4FD7F0112072DE51925E0F51980D77DCF
:06089D00017F0202072D9D
:1008D800E4F518F519751801E51860227F0212076A
:1008E80073EF6004E51842197D017F0112072DE4BA
:1008F800FD7F0112072DE51825E0F51880DAAF19FC
:0109080022CC
:1009F3008F098D0A7D01E4FF12072DE50925E044E7
:100A030080FF12086BAF0A12086BE4FDFF02072D8B
:0209AF008F09AE
:1009B100E4F50A7D01FF12072DE50925E04481FFD9
:1009C10012086B1208D88F0AE4FDFF12072DAF0A37
:0109D1002203
:0607F9008B098A0A890B3E
:1007FF00E4F50C7D01FF12072D7FBE12086BE4F5A7
:10080F000CAB09AA0AA90B850C8275830012011D76
:10081F00FF12086B050CE50CC3940840E4E4FDFFE0
:03082F0002072D90
:060832008B148A158916E3
:10083800E4F5177D01FF12072D7FBF12086BE4F561
:10084800171208D8AB14AA15A91685178275830044
:10085800EF12014A0517E517C3940840E4E4FDFFC9
:0308680002072D57
:100AA6007F381209387F0C1209387F061209387F01
:040AB60001020938F8
:1006E500E4F523F524F5257DFF7F0312072DE4FDB1
:1006F5007F0412072D7D017F0512072D7D017F06E1
:1007050012072D7F031207738F23E4FD7F0612075F
:100715002D0525E52570020524C39410E5249427AD
:070725005005E52320E7D594
:01072C0022AA
:100938008F221206E5E4FD7F0412072DE4FD7F05F2
:1009480012072DAD227F0312072D7D017F061207A6
:080958002DE4FD7F0602072DCE
:100960008F221206E57D017F0412072DE4FD7F052D
:1009700012072DAD227F0312072D7D017F0612077E
:080980002DE4FD7F0602072DA6
:03000000020434C3
:0C043400787FE4F6D8FD75813502047B6A
:10000E00E709F608DFFA8046E709F208DFFA803ED4
:10001E0088828C83E709F0A3DFFA8032E309F608C1
:10002E00DFFA8078E309F208DFFA807088828C8329
:10003E00E309F0A3DFFA806489828A83E0A3F608DD
:10004E00DFFA805889828A83E0A3F208DFFA804CB7
:10005E0080D280FA80C680D4806980F2803380108E
:10006E0080A680EA809A80A880DA80E280CA8033F7
:10007E0089828A83ECFAE493A3C8C582C8CCC5836F
:10008E00CCF0A3C8C582C8CCC583CCDFE9DEE7803F
:10009E000D89828A83E493A3F608DFF9ECFAA9F0BE
:1000AE00EDFB2289828A83ECFAE0A3C8C582C8CC14
:1000BE00C583CCF0A3C8C582C8CCC583CCDFEADE2D
:1000CE00E880DB89828A83E493A3F208DFF980CC8F
:1000DE0088F0EF60010E4E60C388F0ED2402B40488
:1000EE000050B9F582EB2402B4040050AF2323452F
:0600FE00822390005E73F6
:10010400BB010689828A83E0225002E722BBFE02F9
:09011400E32289828A83E493222C
:10011D00BB010CE58229F582E5833AF583E0225097
:10012D0006E92582F8E622BBFE06E92582F8E222E1
:0D013D00E58229F582E5833AF583E49322FB
:10014A00F8BB010DE58229F582E5833AF583E8F0EB
:10015A00225006E92582C8F622BBFE05E92582C897
:02016A00F2227F
:10016C00BB010A89828A83E0F5F0A3E0225006875E
:10017C00F009E71922BBFE07E3F5F009E319228920
:0B018C00828A83E493F5F07401932253
:10019700BB010A89828A83F0E5F0A3F0225006F7B3
:0F01A70009A7F01922BBFE06F3E5F009F31922B0
:0E01B600C3E49FFFE49EFEE49DFDE49CFC225A
:1001C400EB9FF5F0EA9E42F0E99D42F0E89C45F091
:0101D4002208
:1001D500E8600FEFC333FFEE33FEED33FDEC33FC88
:0301E500D8F1222C
:1004400002068CE493A3F8E493A34003F68001F240
:1004500008DFF48029E493A3F85407240CC8C333BD
:10046000C4540F4420C8834004F456800146F6DF8C
:10047000E4800B0102040810204080900A13E47EFF
:10048000019360BCA3FF543F30E509541FFEE49381
:10049000A360010ECF54C025E060A840B8E493A348
:1004A000FAE493A3F8E493A3C8C582C8CAC583CA73
:1004B000F0A3C8C582C8CAC583CADFE9DEE780BE2B
:010A2D0000C8
:00000001FF
