:090C670004350000000001390011
:1008A400120CDA120D05120D09120D017F01120C42
:1008B400F0120BA18F388E378D368C35AF38AE37AA
:1008C400AD36AC351207727B327A0079007800D3EA
:1008D4001201C4501F120BA18F388E378D368C3500
:1008E400120A2AAF39120CE6E53970047F0180023E
:0A08F4007F008F3912057880C322BF
:100C8400000107010106020305030008040205052B
:080C9400020606020707030037
:040631008F2A8D2B54
:10063500752C00E52A1201D5064D000673010699B1
:100645000206BF03000006E3AF2B74017E00A80776
:10065500088005C333CE33CED8F9FFAD807C00EEDC
:100665005CFEEF5DFFEF4E6075752C018070AF2B62
:1006750074017E00A807088005C333CE33CED8F9B0
:10068500FFAD907C00EE5CFEEF5DFFEF4E604F75B9
:100695002C01804AAF2B74017E00A807088005C392
:1006A50033CE33CED8F9FFADA07C00EE5CFEEF5D16
:1006B500FFEF4E6029752C018024AF2B74017E005D
:1006C500A807088005C333CE33CED8F9FFADB07C7B
:1006D50000EE5CFEEF5DFFEF4E6003752C01AF2C65
:0106E50022F2
:020B1B008F2A1F
:100B1D00752B00E52A1201D50B35000B3A010B3F61
:100B2D00020B440300000B4785802B800D85902B15
:0C0B3D00800885A02B800385B02BAF2B17
:010B49002289
:1004B1008F2A8D2B8B2CE52A1201D504CC0004F751
:1004C10001052202054D0300000577E52C7015AFEB
:1004D1002B7401A807088002C333D8FCFFEFF4FF97
:1004E100EF528022AF2B7401A807088002C333D8D2
:1004F100FCFFEF428022E52C7015AF2B7401A80799
:10050100088002C333D8FCFFEFF4FFEF529022AF13
:100511002B7401A807088002C333D8FCFFEF429077
:1005210022E52C7015AF2B7401A807088002C33394
:10053100D8FCFFEFF4FFEF52A022AF2B7401A80704
:10054100088002C333D8FCFFEF42A022E52C7015CE
:10055100AF2B7401A807088002C333D8FCFFEFF466
:10056100FFEF52B022AF2B7401A807088002C333FA
:07057100D8FCFFEF42B022AD
:100B78008F2A8D2BE52A1201D50B91000B95010BBD
:100B880099020B9D0300000BA0852B8022852B90DA
:090B980022852BA022852BB0223E
:100843008F288D29AF28EF75F003A42486F582E461
:10085300340CF583E493FFEF6408602CAF28EF7545
:10086300F003A42485F582E4340CF583E493FFAE0E
:1008730028EE75F003A42486F582E4340CF583E4B2
:1008830093FDAB291204B122AF28EF75F003A42422
:1008930085F582E4340CF583E493FFAD29120B78DC
:0108A3002232
:0207DE008F2862
:1007E000752900AF28EF75F003A42486F582E43460
:1007F0000CF583E493FFEF6408602DAF28EF75F0EC
:1008000003A42485F582E4340CF583E493FFAE2839
:10081000EE75F003A42486F582E4340CF583E493AA
:10082000FD1206318F298018AF28EF75F003A4243C
:1008300085F582E4340CF583E493FF120B1B8F29BA
:02084000AF29DE
:010842002293
:100CC9005389F0438901758CFC758A92D2A9D28C1B
:010CD90022F8
:0A0CE6008F08AD087F0712084322B3
:060C7000043A0000000040
:040D0100120CC922E5
:100BA100751300751200751100751000C2A9AF3DD3
:100BB100AE3CAD3BAC3A8F138E128D118C10D2A985
:080BC100AF13AE12AD11AC1030
:010BC9002209
:080772008F0B8E0A8D098C0823
:10077A00120BA18F0F8E0E8D0D8C0CAF0BAE0AAD26
:10078A0009AC08AB0FAA0EA90DA80CC31201C440EC
:10079A001BC3E50F950BF50FE50E950AF50EE50D52
:1007AA009509F50DE50C9508F50C801FAF0BAE0AFF
:1007BA00AD09AC081201B6E50F2FF50FE50E3EF5AF
:1007CA000EE50D3DF50DE50C3CF50CAF0FAE0EAD8B
:0307DA000DAC0C57
:0107DD0022F9
:03000B000208FEEA
:1008FE00C0E0C0D075D000C000C001C002C003C0AF
:10090E0004C005C006C007758CFC758A92AF3DAE5B
:10091E003CAD3BAC3A7B017A0079007800EF2BF5C9
:10092E003DEE3AF53CED39F53BEC38F53AD007D0D3
:10093E0006D005D004D003D002D001D000D0D0D044
:02094E00E03295
:100C9C007765656B0000000000000000000000009C
:080CAC00000000000000000040
:030C7600013E003C
:040D0500120CB422F6
:0601FB008B108A1189122D
:100201007BFF7A0C79A1C003C002C0017B007A0098
:100211007913A801AC02AD03D001D002D0037E0056
:100221007F0B1200DE751332751430AB10AA11A9C1
:100231001212016CFFAEF0EEC4F854F0C868FEEF84
:10024100C4540F48FFEF540FFFEF2430F515AB10E6
:10025100AA11A91212016CFFAEF0EF540FFFEF24A7
:1002610030F51675172DAB10AA11A91275820275FA
:10027100830012011DFFEFC4540FFFEF2430F51866
:10028100AB10AA11A91275820275830012011DFF1C
:10029100EF540FFFEF2430F519751A2DAB10AA1189
:1002A100A91275820375830012011DFFEFC4540F5B
:1002B100FFEF2430F51BAB10AA11A912758203754B
:1002C100830012011DFFEF540FFFEF2430F51C7561
:1002D1001D007B007A0079137D007F00120950AB6D
:1002E10010AA11A91275820775830012011DFFEF73
:1002F100540FFFEF2430F5137514007BFF7A0C794E
:100301009C7D007F0B1209507B007A0079137D00E0
:100311007F0F120950AB10AA11A9127582047583BF
:100321000012011DFFEFC4540FFFEF2430F513AB92
:1003310010AA11A91275820475830012011DFFEF25
:10034100540FFFEF2430F51475153AAB10AA11A91B
:100351001275820575830012011DFFEFC4540FFF52
:10036100EF2430F516AB10AA11A912758205758319
:100371000012011DFFEF540FFFEF2430F517751820
:100381003AAB10AA11A91275820675830012011DDC
:10039100FFEFC4540FFFEF2430F519AB10AA11A9D8
:1003A1001275820675830012011DFFEF540FFFEFD6
:1003B1002430F51A751B007B007A0079137D017FCB
:0403C10004120950C9
:0103C5002215
:100A2A007BFF7A0C79ACC003C002C0017B007A005C
:100A3A007908A801AC02AD03D001D002D0037E0030
:100A4A007F081200DE7B007A0079081203C6E53EB1
:100A5A00650E600C850E3E7B007A0079081201FB58
:010A6A002269
:0A0950008F1E8D1F8B208A21892243
:10095A00752300E51F7005851E238006E51E2440C9
:10096A00F523E5234480FF120BCAAB20AA21A92252
:10097A00120104FFEF601AAB20AA21A92212010476
:10098A00FF120BF374012522F522E43521F52180AB
:01099A00D983
:01099B002239
:080003000000000000000000F5
:0A0C7900082D20190501123020009B
:040D0900120B4A225D
:0603C6008B108A11891260
:1003CC007B007A00792D8B138A148915AB13AA1430
:1003DC00A91512016CFFAEF0AB10AA11A912EE8F89
:1003EC00F0120197AB13AA14A9157582027583003C
:1003FC0012011DFFAB10AA11A912758202758300A0
:10040C00EF12014AAB13AA14A91575820375830068
:10041C0012011DFFAB10AA11A9127582037583007E
:10042C00EF12014AAB13AA14A91575820475830047
:10043C0012011DFFAB10AA11A9127582047583005D
:10044C00EF12014AAB13AA14A91575820575830026
:10045C0012011DFFAB10AA11A9127582057583003C
:10046C00EF12014AAB13AA14A91575820675830005
:10047C0012011DFFAB10AA11A9127582067583001B
:10048C00EF12014AAB13AA14A915758207758300E4
:10049C0012011DFFAB10AA11A912758207758300FA
:0404AC00EF12014A00
:0104B0002229
:100578007BFF7A007903C003C002C0017B007A00C8
:100588007908A801AC02AD03D001D002D0037E00E7
:100598007F081200DE7B007A00792D8B108A118982
:1005A800127B007A007908120AAAAF0E7E00EF24A7
:1005B80000FFEE3420FEAB10AA11A912EE8FF01244
:1005C8000197AB10AA11A912758202758300E50C78
:1005D80012014AAB10AA11A912758203758300E5AE
:1005E8000B12014AAB10AA11A91275820475830077
:1005F800E50A12014AAB10AA11A912758205758382
:1006080000E50912014AAB10AA11A91275820675F4
:100618008300E50812014AAB10AA11A912758207D6
:08062800758300E50D12014A83
:0106300022A7
:0B0CDA00A2AFE433FF8F08C2AFAF08E9
:010CE50022EC
:090CF0008F08E50824FF92AF22F1
:080CF900003012201007130067
:100B4A007508007D007F001208437D007F011208AE
:100B5A00437F00120C1C8F08E50830E7107D007FE8
:0D0B6A0007120C437BFF7A0C79F9120A6B1D
:010B7700225B
:0209E8008F1767
:1009EA00751800751801E518602EE5185517FFEF00
:1009FA0060097D017F0212084380077D007F021291
:100A0A0008437D017F011208437D007F01120843DC
:0F0A1A00E51825E0F51880CE7D017F0212084314
:010A290022AA
:100AE900751700751800751701E51760227F021246
:100AF90007DEEF6004E51742187D017F0112084304
:100B09007D007F01120843E51725E0F51780DAAF6C
:010B190018C3
:010B1A0022B8
:100C43008F098D0A7D017F00120843E50925E0FF26
:100C5300EF4480FF1209E8AF0A1209E87D007F0024
:040C6300120843220E
:020C1C008F093E
:100C1E00750A007D017F00120843E50925E0FFEF0C
:100C2E004481FF1209E8120AE98F0A7D007F001243
:040C3E000843AF0AAE
:010C4200228F
:060A6B008B098A0A890BC9
:100A7100750C007D017F001208437FBE1209E875E5
:100A81000C00E50CC394085018AB09AA0AA90BAFD6
:100A91000C8F8275830012011DFF1209E8050C807D
:080AA100E17D007F0012084313
:010AA900222A
:060AAA008B138A1489156C
:100AB0007516007D017F001208437FBF1209E8759B
:100AC0001600E516C394085018120AE9AB13AA14CD
:100AD000A915AE168E82758300EF12014A051680A5
:080AE000E17D007F00120843D4
:010AE80022EB
:100CB4007F38120BCA7F0C120BCA7F06120BCA7F35
:050CC40001120BCA2221
:10099C007525007526007527007DFF7F031208431F
:1009AC007D007F041208437D017F051208437D0101
:1009BC007F061208437F031207DE8F257D007F061A
:1009CC001208430527E52770020526C3E527941076
:0B09DC00E52694275005E52520E7D311
:0109E70022ED
:100BCA008F2412099C7D007F041208437D007F0553
:100BDA00120843AD247F031208437D017F061208E1
:090BEA00437D007F06120843223E
:100BF3008F2412099C7D017F041208437D007F0529
:100C0300120843AD247F031208437D017F061208B7
:090C1300437D007F061208432214
:030000000206E60F
:0C06E600787FE4F6D8FD75813E02072DF8
:10000E00E709F608DFFA8046E709F208DFFA803ED4
:10001E0088828C83E709F0A3DFFA8032E309F608C1
:10002E00DFFA8078E309F208DFFA807088828C8329
:10003E00E309F0A3DFFA806489828A83E0A3F608DD
:10004E00DFFA805889828A83E0A3F208DFFA804CB7
:10005E0080D280FA80C680D4806980F2803380108E
:10006E0080A680EA809A80A880DA80E280CA8033F7
:10007E0089828A83ECFAE493A3C8C582C8CCC5836F
:10008E00CCF0A3C8C582C8CCC583CCDFE9DEE7803F
:10009E000D89828A83E493A3F608DFF9ECFAA9F0BE
:1000AE00EDFB2289828A83ECFAE0A3C8C582C8CC14
:1000BE00C583CCF0A3C8C582C8CCC583CCDFEADE2D
:1000CE00E880DB89828A83E493A3F208DFF980CC8F
:1000DE0088F0EF60010E4E60C388F0ED2402B40488
:1000EE000050B9F582EB2402B4040050AF2323452F
:0600FE00822390005E73F6
:10010400BB010689828A83E0225002E722BBFE02F9
:09011400E32289828A83E493222C
:10011D00BB010CE58229F582E5833AF583E0225097
:10012D0006E92582F8E622BBFE06E92582F8E222E1
:0D013D00E58229F582E5833AF583E49322FB
:10014A00F8BB010DE58229F582E5833AF583E8F0EB
:10015A00225006E92582C8F622BBFE05E92582C897
:02016A00F2227F
:10016C00BB010A89828A83E0F5F0A3E0225006875E
:10017C00F009E71922BBFE07E3F5F009E319228920
:0B018C00828A83E493F5F07401932253
:10019700BB010A89828A83F0E5F0A3F0225006F7B3
:0F01A70009A7F01922BBFE06F3E5F009F31922B0
:0E01B600C3E49FFFE49EFEE49DFDE49CFC225A
:1001C400EB9FF5F0EA9E42F0E99D42F0E89C45F091
:0101D4002208
:1001D500D083D082F8E4937012740193700DA3A3B9
:1001E50093F8740193F5828883E4737402936860CD
:0601F500EFA3A3A380DFCD
:1006F2000208A4E493A3F8E493A34003F68001F272
:1007020008DFF48029E493A3F85407240CC8C33308
:10071200C4540F4420C8834004F456800146F6DFD7
:10072200E4800B0102040810204080900C67E47EF4
:10073200019360BCA3FF543F30E509541FFEE493CC
:10074200A360010ECF54C025E060A840B8E493A393
:10075200FAE493A3F8E493A3C8C582C8CAC583CABE
:10076200F0A3C8C582C8CAC583CADFE9DEE780BE76
:010C83000070
:00000001FF
