:0F0C8400042D00000000043100000000013500C5
:100CA700120D17120D42120D46120D3E7F01120D45
:0A0CB7002D120B6A120A9F80F8222A
:100B6A00AF30AE2FAD2EAC2D1207727B0A7A007908
:100B7A00007800D31201C4500E120B958F308E2FBD
:0A0B8A008D2E8C2D1205781209E063
:010B9400223E
:100A9F00AF34AE33AD32AC311207727B647A00796A
:100AAF00007800D31201C4501C120B958F348E3373
:100ABF008D328C31AF35120D23E53570047F0180F7
:050ACF00027F008F35DD
:010AD40022FF
:0A0D23008F08AD087F071208432275
:060C9300043E0000000019
:040D3E00120D06226A
:100B9500751300751200751100751000C2A9AF41DB
:100BA500AE40AD3FAC3E8F138E128D118C10D2A985
:080BB500AF13AE12AD11AC103C
:010BBD002215
:080772008F0B8E0A8D098C0823
:10077A00120B958F0F8E0E8D0D8C0CAF0BAE0AAD32
:10078A0009AC08AB0FAA0EA90DA80CC31201C440EC
:10079A001BC3E50F950BF50FE50E950AF50EE50D52
:1007AA009509F50DE50C9508F50C801FAF0BAE0AFF
:1007BA00AD09AC081201B6E50F2FF50FE50E3EF5AF
:1007CA000EE50D3DF50DE50C3CF50CAF0FAE0EAD8B
:0307DA000DAC0C57
:0107DD0022F9
:03000B00020900E7
:10090000C0E0C0D075D000C000C001C002C003C0AC
:1009100004C005C006C007758CFC758A92AF41AE55
:1009200040AD3FAC3E7B017A0079007800EF2BF5BB
:1009300041EE3AF540ED39F53FEC38F53ED007D0C1
:1009400006D005D004D003D002D001D000D0D0D042
:02095000E03293
:100CC1007765656B00000000000000000000000077
:080CD10000000000000000001B
:030C990001420015
:040D4200120CF1227C
:0601FB008B108A1189122D
:100201007BFF7A0C79C6C003C002C0017B007A0073
:100211007913A801AC02AD03D001D002D0037E0056
:100221007F0B1200DE751332751430AB10AA11A9C1
:100231001212016CFFAEF0EEC4F854F0C868FEEF84
:10024100C4540F48FFEF540FFFEF2430F515AB10E6
:10025100AA11A91212016CFFAEF0EF540FFFEF24A7
:1002610030F51675172DAB10AA11A91275820275FA
:10027100830012011DFFEFC4540FFFEF2430F51866
:10028100AB10AA11A91275820275830012011DFF1C
:10029100EF540FFFEF2430F519751A2DAB10AA1189
:1002A100A91275820375830012011DFFEFC4540F5B
:1002B100FFEF2430F51BAB10AA11A912758203754B
:1002C100830012011DFFEF540FFFEF2430F51C7561
:1002D1001D007B007A0079137D007F00120952AB6B
:1002E10010AA11A91275820775830012011DFFEF73
:1002F100540FFFEF2430F5137514007BFF7A0C794E
:10030100C17D007F0B1209527B007A0079137D00B9
:100311007F0F120952AB10AA11A9127582047583BD
:100321000012011DFFEFC4540FFFEF2430F513AB92
:1003310010AA11A91275820475830012011DFFEF25
:10034100540FFFEF2430F51475153AAB10AA11A91B
:100351001275820575830012011DFFEFC4540FFF52
:10036100EF2430F516AB10AA11A912758205758319
:100371000012011DFFEF540FFFEF2430F517751820
:100381003AAB10AA11A91275820675830012011DDC
:10039100FFEFC4540FFFEF2430F519AB10AA11A9D8
:1003A1001275820675830012011DFFEF540FFFEFD6
:1003B1002430F51A751B007B007A0079137D017FCB
:0403C10004120952C7
:0103C5002215
:1009E0007BFF7A0C79D1C003C002C0017B007A0082
:1009F0007908A801AC02AD03D001D002D0037E007B
:100A00007F081200DE7B007A0079081203C6E542F7
:100A1000650E600C850E427B007A0079081201FB9E
:010A200022B3
:0A0952008F1E8D1F8B208A21892241
:10095C00752300E51F7005851E238006E51E2440C7
:10096C00F523E5234480FF120BE7AB20AA21A92233
:10097C00120104FFEF601AAB20AA21A92212010474
:10098C00FF120C1074012522F522E43521F521808B
:01099C00D981
:01099D002237
:080003000000000000000000F5
:0A0C9C00083620190501123020006F
:040D4600120AD52296
:0603C6008B108A11891260
:1003CC007B007A0079368B138A148915AB13AA1427
:1003DC00A91512016CFFAEF0AB10AA11A912EE8F89
:1003EC00F0120197AB13AA14A9157582027583003C
:1003FC0012011DFFAB10AA11A912758202758300A0
:10040C00EF12014AAB13AA14A91575820375830068
:10041C0012011DFFAB10AA11A9127582037583007E
:10042C00EF12014AAB13AA14A91575820475830047
:10043C0012011DFFAB10AA11A9127582047583005D
:10044C00EF12014AAB13AA14A91575820575830026
:10045C0012011DFFAB10AA11A9127582057583003C
:10046C00EF12014AAB13AA14A91575820675830005
:10047C0012011DFFAB10AA11A9127582067583001B
:10048C00EF12014AAB13AA14A915758207758300E4
:10049C0012011DFFAB10AA11A912758207758300FA
:0404AC00EF12014A00
:0104B0002229
:100578007BFF7A007903C003C002C0017B007A00C8
:100588007908A801AC02AD03D001D002D0037E00E7
:100598007F081200DE7B007A0079368B108A118979
:1005A800127B007A007908120A60AF0E7E00EF24F1
:1005B80000FFEE3420FEAB10AA11A912EE8FF01244
:1005C8000197AB10AA11A912758202758300E50C78
:1005D80012014AAB10AA11A912758203758300E5AE
:1005E8000B12014AAB10AA11A91275820475830077
:1005F800E50A12014AAB10AA11A912758205758382
:1006080000E50912014AAB10AA11A91275820675F4
:100618008300E50812014AAB10AA11A912758207D6
:08062800758300E50D12014A83
:0106300022A7
:0B0D1700A2AFE433FF8F08C2AFAF08AB
:010D220022AE
:090D2D008F08E50824FF92AF22B3
:100CD90000010701010602030503000804020505D6
:080CE9000206060207070300E2
:040631008F2A8D2B54
:10063500752C00E52A1201D5064D000673010699B1
:100645000206BF03000006E3AF2B74017E00A80776
:10065500088005C333CE33CED8F9FFAD807C00EEDC
:100665005CFEEF5DFFEF4E6075752C018070AF2B62
:1006750074017E00A807088005C333CE33CED8F9B0
:10068500FFAD907C00EE5CFEEF5DFFEF4E604F75B9
:100695002C01804AAF2B74017E00A807088005C392
:1006A50033CE33CED8F9FFADA07C00EE5CFEEF5D16
:1006B500FFEF4E6029752C018024AF2B74017E005D
:1006C500A807088005C333CE33CED8F9FFADB07C7B
:1006D50000EE5CFEEF5DFFEF4E6003752C01AF2C65
:0106E50022F2
:020B3B008F2AFF
:100B3D00752B00E52A1201D50B55000B5A010B5FE1
:100B4D00020B640300000B6785802B800D85902BB5
:0C0B5D00800885A02B800385B02BAF2BF7
:010B69002269
:1004B1008F2A8D2B8B2CE52A1201D504CC0004F751
:1004C10001052202054D0300000577E52C7015AFEB
:1004D1002B7401A807088002C333D8FCFFEFF4FF97
:1004E100EF528022AF2B7401A807088002C333D8D2
:1004F100FCFFEF428022E52C7015AF2B7401A80799
:10050100088002C333D8FCFFEFF4FFEF529022AF13
:100511002B7401A807088002C333D8FCFFEF429077
:1005210022E52C7015AF2B7401A807088002C33394
:10053100D8FCFFEFF4FFEF52A022AF2B7401A80704
:10054100088002C333D8FCFFEF42A022E52C7015CE
:10055100AF2B7401A807088002C333D8FCFFEFF466
:10056100FFEF52B022AF2B7401A807088002C333FA
:07057100D8FCFFEF42B022AD
:100BBE008F2A8D2BE52A1201D50BD7000BDB010BEB
:100BCE00DF020BE30300000BE6852B8022852B90C2
:090BDE0022852BA022852BB022F8
:100843008F288D29AF28EF75F003A424DBF582E40C
:10085300340CF583E493FFEF6408602CAF28EF7545
:10086300F003A424DAF582E4340CF583E493FFAEB9
:1008730028EE75F003A424DBF582E4340CF583E45D
:1008830093FDAB291204B122AF28EF75F003A42422
:10089300DAF582E4340CF583E493FFAD29120BBE41
:0108A3002232
:0207DE008F2862
:1007E000752900AF28EF75F003A424DBF582E4340B
:1007F0000CF583E493FFEF6408602DAF28EF75F0EC
:1008000003A424DAF582E4340CF583E493FFAE28E4
:10081000EE75F003A424DBF582E4340CF583E49355
:10082000FD1206318F298018AF28EF75F003A4243C
:10083000DAF582E4340CF583E493FF120B3B8F2945
:02084000AF29DE
:010842002293
:100D06005389F0438901758CFC758A92D2A9D28CDD
:010D160022BA
:080D3600003012201007130029
:100AD5007508007D007F001208437D007F01120824
:100AE500437F00120C398F08E5085480FF7E00EF24
:100AF5004E60107D007F07120C607BFF7A0D793602
:030B0500120A21B0
:010B080022CA
:02099E008F17B1
:1009A000751800751801E518602EE5185517FFEF4A
:1009B00060097D017F0212084380077D007F0212DB
:1009C00008437D017F011208437D007F0112084327
:0F09D000E51825E0F51880CE7D017F021208435F
:0109DF0022F5
:100B0900751700751800751701E51760227F021225
:100B190007DEEF6004E51742187D017F01120843E3
:100B29007D007F01120843E51725E0F51780DAAF4C
:010B390018A3
:010B3A002298
:100C60008F098D0A7D017F00120843E50925E0FF09
:100C7000EF4480FF12099EAF0A12099E7D007F009B
:040C800012084322F1
:020C39008F0921
:100C3B00750A007D017F00120843E50925E0FFEFEF
:100C4B004481FF12099E120B098F0A7D007F00124F
:040C5B000843AF0A91
:010C5F002272
:060A21008B098A0A890B13
:100A2700750C007D017F001208437FBE12099E7579
:100A37000C00E50CC394085018AB09AA0AA90BAF20
:100A47000C8F8275830012011DFF12099E050C8011
:080A5700E17D007F001208435D
:010A5F002274
:060A60008B138A148915B6
:100A66007516007D017F001208437FBF12099E752F
:100A76001600E516C394085018120B09AB13AA14F6
:100A8600A915AE168E82758300EF12014A051680EF
:080A9600E17D007F001208431E
:010A9E002235
:100CF1007F38120BE77F0C120BE77F06120BE77FA1
:050D010001120BE722C6
:1008A4007525007526007527007DFF7F0312084318
:1008B4007D007F041208437D017F051208437D01FA
:1008C4007F061208437F031207DE8F257D007F0613
:1008D4001208430527E52770020526AE26AF27E454
:1008E400FCFD7B107A2779007800D31201C4400BF9
:0B08F400E5255480FF7E00EF4E70C32E
:0108FF0022D6
:100BE7008F241208A47D007F041208437D007F052F
:100BF700120843AD247F031208437D017F061208C4
:090C0700437D007F061208432220
:100C10008F241208A47D017F041208437D007F0504
:100C2000120843AD247F031208437D017F0612089A
:090C3000437D007F0612084322F7
:030000000206E60F
:0C06E600787FE4F6D8FD75814202072DF4
:10000E00E709F608DFFA8046E709F208DFFA803ED4
:10001E0088828C83E709F0A3DFFA8032E309F608C1
:10002E00DFFA8078E309F208DFFA807088828C8329
:10003E00E309F0A3DFFA806489828A83E0A3F608DD
:10004E00DFFA805889828A83E0A3F208DFFA804CB7
:10005E0080D280FA80C680D4806980F2803380108E
:10006E0080A680EA809A80A880DA80E280CA8033F7
:10007E0089828A83ECFAE493A3C8C582C8CCC5836F
:10008E00CCF0A3C8C582C8CCC583CCDFE9DEE7803F
:10009E000D89828A83E493A3F608DFF9ECFAA9F0BE
:1000AE00EDFB2289828A83ECFAE0A3C8C582C8CC14
:1000BE00C583CCF0A3C8C582C8CCC583CCDFEADE2D
:1000CE00E880DB89828A83E493A3F208DFF980CC8F
:1000DE0088F0EF60010E4E60C388F0ED2402B40488
:1000EE000050B9F582EB2402B4040050AF2323452F
:0600FE00822390005E73F6
:10010400BB010689828A83E0225002E722BBFE02F9
:09011400E32289828A83E493222C
:10011D00BB010CE58229F582E5833AF583E0225097
:10012D0006E92582F8E622BBFE06E92582F8E222E1
:0D013D00E58229F582E5833AF583E49322FB
:10014A00F8BB010DE58229F582E5833AF583E8F0EB
:10015A00225006E92582C8F622BBFE05E92582C897
:02016A00F2227F
:10016C00BB010A89828A83E0F5F0A3E0225006875E
:10017C00F009E71922BBFE07E3F5F009E319228920
:0B018C00828A83E493F5F07401932253
:10019700BB010A89828A83F0E5F0A3F0225006F7B3
:0F01A70009A7F01922BBFE06F3E5F009F31922B0
:0E01B600C3E49FFFE49EFEE49DFDE49CFC225A
:1001C400EB9FF5F0EA9E42F0E99D42F0E89C45F091
:0101D4002208
:1001D500D083D082F8E4937012740193700DA3A3B9
:1001E50093F8740193F5828883E4737402936860CD
:0601F500EFA3A3A380DFCD
:1006F200020CA7E493A3F8E493A34003F68001F26B
:1007020008DFF48029E493A3F85407240CC8C33308
:10071200C4540F4420C8834004F456800146F6DFD7
:10072200E4800B0102040810204080900C84E47ED7
:10073200019360BCA3FF543F30E509541FFEE493CC
:10074200A360010ECF54C025E060A840B8E493A393
:10075200FAE493A3F8E493A3C8C582C8CAC583CABE
:10076200F0A3C8C582C8CAC583CADFE9DEE780BE76
:010CA600004D
:00000001FF
